{
  "_format": "hh-sol-artifact-1",
  "contractName": "Preserve",
  "sourceName": "contracts/preserve.sol",
  "abi": [
    {
      "inputs": [],
      "stateMutability": "nonpayable",
      "type": "constructor"
    },
    {
      "anonymous": false,
      "inputs": [
        {
          "indexed": true,
          "internalType": "address",
          "name": "_from",
          "type": "address"
        },
        {
          "indexed": false,
          "internalType": "string",
          "name": "_value",
          "type": "string"
        },
        {
          "indexed": false,
          "internalType": "uint256",
          "name": "_indexLen",
          "type": "uint256"
        }
      ],
      "name": "IndexUpdated",
      "type": "event"
    },
    {
      "inputs": [
        {
          "internalType": "string",
          "name": "_value",
          "type": "string"
        }
      ],
      "name": "addValueToIndex",
      "outputs": [],
      "stateMutability": "nonpayable",
      "type": "function"
    },
    {
      "inputs": [],
      "name": "returnIndexLen",
      "outputs": [
        {
          "internalType": "uint256",
          "name": "",
          "type": "uint256"
        }
      ],
      "stateMutability": "view",
      "type": "function"
    },
    {
      "inputs": [
        {
          "internalType": "uint256",
          "name": "_idx",
          "type": "uint256"
        }
      ],
      "name": "returnValueAtIndex",
      "outputs": [
        {
          "internalType": "string",
          "name": "",
          "type": "string"
        }
      ],
      "stateMutability": "view",
      "type": "function"
    },
    {
      "inputs": [],
      "name": "returnVersion",
      "outputs": [
        {
          "internalType": "uint256",
          "name": "",
          "type": "uint256"
        }
      ],
      "stateMutability": "pure",
      "type": "function"
    },
    {
      "inputs": [
        {
          "internalType": "string",
          "name": "newName",
          "type": "string"
        }
      ],
      "name": "setIndexName",
      "outputs": [],
      "stateMutability": "nonpayable",
      "type": "function"
    },
    {
      "inputs": [
        {
          "internalType": "address",
          "name": "_user",
          "type": "address"
        },
        {
          "internalType": "uint256",
          "name": "_permission",
          "type": "uint256"
        }
      ],
      "name": "setUserPermissions",
      "outputs": [],
      "stateMutability": "nonpayable",
      "type": "function"
    }
  ],
  "bytecode": "0x608060405234801561001057600080fd5b50600080546001600160a01b031916339081178255815260036020908152604091829020600190558151808301909252600780835266155b9b985b595960ca1b9290910191825261006391600291610069565b5061013d565b82805461007590610102565b90600052602060002090601f01602090048101928261009757600085556100dd565b82601f106100b057805160ff19168380011785556100dd565b828001600101855582156100dd579182015b828111156100dd5782518255916020019190600101906100c2565b506100e99291506100ed565b5090565b5b808211156100e957600081556001016100ee565b600181811c9082168061011657607f821691505b6020821081141561013757634e487b7160e01b600052602260045260246000fd5b50919050565b6106818061014c6000396000f3fe608060405234801561001057600080fd5b50600436106100625760003560e01c806326d4a4df14610067578063398152a51461007c578063442bd9a2146100935780634b3e20a71461009a5780636526b8a4146100ad578063b07ac35e146100cd575b600080fd5b61007a61007536600461041d565b6100e0565b005b6001545b6040519081526020015b60405180910390f35b6002610080565b61007a6100a8366004610453565b6101f5565b6100c06100bb3660046104fd565b61029c565b60405161008a9190610560565b61007a6100db366004610453565b61033e565b336000908152600360205260409020546001146101185760405162461bcd60e51b815260040161010f9061059c565b60405180910390fd5b6000546001600160a01b03838116911614156101765760405162461bcd60e51b815260206004820152601e60248201527f43616e2774206d6f64696679206f776e6572207065726d697373696f6e730000604482015260640161010f565b6001600160a01b0382163314156101d95760405162461bcd60e51b815260206004820152602160248201527f43616e2774206d6f6469667920796f7572206f776e207065726d697373696f6e6044820152607360f81b606482015260840161010f565b6001600160a01b03909116600090815260036020526040902055565b336000908152600360205260409020546001146102245760405162461bcd60e51b815260040161010f9061059c565b6001546000908152600460209081526040909120825161024692840190610384565b50600180549060006102578361060e565b909155505060015460405133917f18dba48ebe8308ec7252bd33aeba357b6806c62c7226b28af3527b17e7a6c32e9161029191859161057a565b60405180910390a250565b60008181526004602052604090208054606091906102b9906105d3565b80601f01602080910402602001604051908101604052809291908181526020018280546102e5906105d3565b80156103325780601f1061030757610100808354040283529160200191610332565b820191906000526020600020905b81548152906001019060200180831161031557829003601f168201915b50505050509050919050565b3360009081526003602052604090205460011461036d5760405162461bcd60e51b815260040161010f9061059c565b8051610380906002906020840190610384565b5050565b828054610390906105d3565b90600052602060002090601f0160209004810192826103b257600085556103f8565b82601f106103cb57805160ff19168380011785556103f8565b828001600101855582156103f8579182015b828111156103f85782518255916020019190600101906103dd565b50610404929150610408565b5090565b5b808211156104045760008155600101610409565b6000806040838503121561042f578182fd5b82356001600160a01b0381168114610445578283fd5b946020939093013593505050565b600060208284031215610464578081fd5b813567ffffffffffffffff8082111561047b578283fd5b818401915084601f83011261048e578283fd5b8135818111156104a0576104a0610635565b604051601f8201601f19908116603f011681019083821181831017156104c8576104c8610635565b816040528281528760208487010111156104e0578586fd5b826020860160208301379182016020019490945295945050505050565b60006020828403121561050e578081fd5b5035919050565b60008151808452815b8181101561053a5760208185018101518683018201520161051e565b8181111561054b5782602083870101525b50601f01601f19169290920160200192915050565b6020815260006105736020830184610515565b9392505050565b60408152600061058d6040830185610515565b90508260208301529392505050565b6020808252601a908201527f416374696f6e206e6f7420616c6c6f7765642062792075736572000000000000604082015260600190565b600181811c908216806105e757607f821691505b6020821081141561060857634e487b7160e01b600052602260045260246000fd5b50919050565b600060001982141561062e57634e487b7160e01b81526011600452602481fd5b5060010190565b634e487b7160e01b600052604160045260246000fdfea2646970667358221220306f2ba7d2c824f3632ee90df5b2267531ae9e171a9c66e06203365beb9c7af564736f6c63430008040033",
  "linkReferences": {},
  "deployedLinkReferences": {}
}