{
  "_format": "hh-sol-artifact-1",
  "contractName": "Preserve",
  "sourceName": "contracts/preserve.sol",
  "abi": [
    {
      "inputs": [],
      "stateMutability": "nonpayable",
      "type": "constructor"
    },
    {
      "inputs": [
        {
          "internalType": "string",
          "name": "_value",
          "type": "string"
        }
      ],
      "name": "addValueToIndex",
      "outputs": [],
      "stateMutability": "nonpayable",
      "type": "function"
    },
    {
      "inputs": [],
      "name": "returnIndexLen",
      "outputs": [
        {
          "internalType": "uint256",
          "name": "",
          "type": "uint256"
        }
      ],
      "stateMutability": "view",
      "type": "function"
    },
    {
      "inputs": [
        {
          "internalType": "uint256",
          "name": "_idx",
          "type": "uint256"
        }
      ],
      "name": "returnValueAtIndex",
      "outputs": [
        {
          "internalType": "string",
          "name": "",
          "type": "string"
        }
      ],
      "stateMutability": "view",
      "type": "function"
    },
    {
      "inputs": [
        {
          "internalType": "address",
          "name": "_user",
          "type": "address"
        },
        {
          "internalType": "uint256",
          "name": "_permission",
          "type": "uint256"
        }
      ],
      "name": "setUserPermissions",
      "outputs": [],
      "stateMutability": "nonpayable",
      "type": "function"
    }
  ],
  "bytecode": "0x608060405234801561001057600080fd5b503360008181526002602052604081206001905580546001600160a01b03191690911790556105be806100446000396000f3fe608060405234801561001057600080fd5b506004361061004c5760003560e01c806326d4a4df14610051578063398152a5146100665780634b3e20a71461007c5780636526b8a41461008f575b600080fd5b61006461005f3660046103c5565b6100af565b005b6001546040519081526020015b60405180910390f35b61006461008a3660046103fb565b6101f0565b6100a261009d3660046104a5565b61028a565b60405161007391906104bd565b336000908152600260205260409020546001146101135760405162461bcd60e51b815260206004820152601a60248201527f416374696f6e206e6f7420616c6c6f776564206279207573657200000000000060448201526064015b60405180910390fd5b6000546001600160a01b03838116911614156101715760405162461bcd60e51b815260206004820152601e60248201527f43616e2774206d6f64696679206f776e6572207065726d697373696f6e730000604482015260640161010a565b6001600160a01b0382163314156101d45760405162461bcd60e51b815260206004820152602160248201527f43616e2774206d6f6469667920796f7572206f776e207065726d697373696f6e6044820152607360f81b606482015260840161010a565b6001600160a01b03909116600090815260026020526040902055565b3360009081526002602052604090205460011461024f5760405162461bcd60e51b815260206004820152601a60248201527f416374696f6e206e6f7420616c6c6f7765642062792075736572000000000000604482015260640161010a565b600154600090815260036020908152604090912082516102719284019061032c565b50600180549060006102828361054b565b919050555050565b60008181526003602052604090208054606091906102a790610510565b80601f01602080910402602001604051908101604052809291908181526020018280546102d390610510565b80156103205780601f106102f557610100808354040283529160200191610320565b820191906000526020600020905b81548152906001019060200180831161030357829003601f168201915b50505050509050919050565b82805461033890610510565b90600052602060002090601f01602090048101928261035a57600085556103a0565b82601f1061037357805160ff19168380011785556103a0565b828001600101855582156103a0579182015b828111156103a0578251825591602001919060010190610385565b506103ac9291506103b0565b5090565b5b808211156103ac57600081556001016103b1565b600080604083850312156103d7578182fd5b82356001600160a01b03811681146103ed578283fd5b946020939093013593505050565b60006020828403121561040c578081fd5b813567ffffffffffffffff80821115610423578283fd5b818401915084601f830112610436578283fd5b81358181111561044857610448610572565b604051601f8201601f19908116603f0116810190838211818310171561047057610470610572565b81604052828152876020848701011115610488578586fd5b826020860160208301379182016020019490945295945050505050565b6000602082840312156104b6578081fd5b5035919050565b6000602080835283518082850152825b818110156104e9578581018301518582016040015282016104cd565b818111156104fa5783604083870101525b50601f01601f1916929092016040019392505050565b600181811c9082168061052457607f821691505b6020821081141561054557634e487b7160e01b600052602260045260246000fd5b50919050565b600060001982141561056b57634e487b7160e01b81526011600452602481fd5b5060010190565b634e487b7160e01b600052604160045260246000fdfea2646970667358221220d21ca37e77ae60794e7bd57adfcee384264ad7d3a230b03d8d68e254b0a299d064736f6c63430008040033",
  "linkReferences": {},
  "deployedLinkReferences": {}
}